:020000040800F2
:10000000804E00208D010008210200082302000814
:10001000270200082B0200082F0200080000000041
:1000200000000000000000000000000001010008C6
:100030003502000800000000350100083B4C0008B4
:10004000A7010008F3400008A7010008A701000865
:10005000A7010008A7010008A7010008A7010008E0
:10006000A7010008A7010008A7010008A7010008D0
:10007000FD310008A70100082D280008A70100088D
:10008000A7010008752D0008A7010008A7010008B6
:10009000A7010008A7010008A7010008A7010008A0
:1000A000A7010008A7010008A7010008A701000890
:1000B000A7010008A7010008A7010008A701000880
:1000C000A7010008A7010008A7010008A701000870
:1000D000A70100085F280008A92D00082D3200089C
:1000E000A7010008A7010008A7010008DFF80CD04D
:1000F00006F066FA00480047E7010008804E00203D
:100100001A4B19680868B0E8F00F80F309884FF0BF
:10011000000080F311884EF00D0E704700000000C3
:1001200003480068006880F3088862B600DF00BFFB
:1001300008ED00E0EFF309800C4B1A6820E9F00F9E
:10014000106008B54FF0030080F3118805F09AFAAB
:100150004FF0000080F31188BDE808401968086876
:10016000B0E8F00F80F30988704700BFC800002096
:1001700001B44FF0030080F3118801BC704701B453
:100180004FF0000080F3118801BC7047064880479B
:1001900006480047FEE7FEE7FEE7FEE7FEE7FEE76C
:1001A000FEE7FEE7FEE7FEE74B260008ED0000084D
:1001B00010B540F6C41003F0A9FE40F6C41003F0D9
:1001C000DFFE03F062FC02F03BFD03F06BFC04F089
:1001D00000F804F05AFB0EA006F036FA4FF4407017
:1001E00001F054F910BD1FB5FFF7E2FF00200F2307
:1001F000CDE90030029003464FF4007206A103904F
:10020000064804F0D1FF05F057FB00BFFEE70000F1
:100210004F4B0D0A00000000494D550039020008FF
:10022000704700BFFEE700BFFEE700BFFEE700BF6C
:10023000FEE770477047704708B505F060FB009017
:1002400003F03CFB1F49086C80470421012004F0A7
:1002500009FD1D4908600421012004F003FD1B492C
:1002600008602DE01A481B49086004F0D1FC03F037
:10027000CFFF174804F019F804F0D3FC16480078B3
:1002800001280BD115480078401CC0B213490870F2
:10029000022803DB0020087004F076FB00231A46D6
:1002A0000C490A48006804F090FD00231A460949E9
:1002B0000548006804F089FD0A21684605F03AF90E
:1002C000D0E700001C0E00200000002004000020E9
:1002D0000C010020080000207C0000200C00002001
:1002E000DF48006840F00100DD49086008464068CA
:1002F000DC490840DA49486008460068DA490840A5
:10030000D74908600846006820F480200860084645
:10031000406820F4FE0048604FF41F00886070477A
:10032000CF49096821F48031CD4A1160114609682E
:1003300021F480211160B0F5803F03D0B0F5802F0B
:100340000ED106E0C649096841F48031C44A116003
:1003500007E0C349096841F4A021C14A116000E0E7
:1003600000BF00BF704710B50146002200230020E7
:100370004A11012A02D1BA4C236806E0022A02D1AE
:10038000B74C236A01E0B64C636A01F01F020124F6
:1003900094401C400CB1012000E0002010BD38B595
:1003A000002000900024002500BF3120FFF7DBFF74
:1003B00005460098401C00900098B0F5A06F01D051
:1003C000002DF2D03120FFF7CEFF08B1012400E06C
:1003D0000024204638BD01460020A14A106820F0C4
:1003E000F80040EAC10010607047A04908607047FB
:1003F000024600209A4B586820F47C1042EA010320
:100400001843974B586070479849086670470146F3
:100410000020934A506820F0030008435060704762
:100420008F48406800F00C007047014600208C4A5D
:10043000506820F0F00008435060704701460020EB
:10044000874A506820F4E0600843506070470146D6
:100450000020834A506820F4605040EAC100506098
:10046000704729B17E4A527A02437D4B5A7204E0AA
:100470007B4A527A82437A4B5A7270477B49D83111
:100480000860704701460020754A506820F44040DB
:100490000843506070470021714A20321170704A41
:1004A00082F82010012802D004280AD104E001219A
:1004B0006B4A2032117005E00521694A2032117023
:1004C00000E000BF00BF7047694908607047644999
:1004D000096A0143624A11627047654944390860FC
:1004E000704730B500210022002400235C4D6D6868
:1004F00005F00C0121B1042905D0082923D105E01C
:100500005C4D056022E05B4D05601FE0544D6D6859
:1005100005F47012524D6D6805F48034022505EB28
:1005200092421CB9544D554305600BE04C4D6D682B
:1005300005F400351DB1504D5543056002E04D4DA9
:100540005543056002E04B4D056000BF00BF444DC0
:100550006D6805F0F0010909484D6B5C0568DD40E8
:1005600045603F4D6D6805F4E061090A434D6B5CE1
:100570004568DD4085603A4D6D6805F46051C90AF3
:100580003E4D6B5C4568DD40C560354D6D6805F4DA
:100590004041890B3A4D6B5CC568B5FBF3F50561CD
:1005A00030BD29B12E4A526902432D4B5A6104E0F5
:1005B0002B4A526982432A4B5A61704729B1284A13
:1005C00092690243264B9A6104E0254A926982436C
:1005D000234B9A61704729B1214AD2690243204BCB
:1005E000DA6104E01E4AD26982431D4BDA6170472A
:1005F00029B11B4AD2680243194BDA6004E0184A59
:10060000D2688243164BDA60704729B1144A1269E6
:100610000243134B1A6104E0114A12698243104BE2
:100620001A61704712494039086070470F49C86421
:1006300070470B49C87170470948406A40F08070A4
:1006400007494862704701460020054A92680A40FF
:100650000AB1012000E0002070470149887270470C
:10066000001002400000FFF8FFFFF6FE00004242CB
:100670008004424200127A0000093D000D00002073
:100680001D00002010B50446CC48844208D1012149
:100690000420FFF7ADFF00210420FFF7A9FF46E08B
:1006A000C748844208D101210820FFF7A1FF00219B
:1006B0000820FFF79DFF3AE0C248844208D101219B
:1006C0001020FFF795FF00211020FFF791FF2EE08B
:1006D000BD48844208D101212020FFF789FF002175
:1006E0002020FFF785FF22E0B848844208D101218D
:1006F0004020FFF77DFF00214020FFF779FF16E043
:10070000B348844208D101218020FFF771FF002106
:100710008020FFF76DFF0AE0AE48844207D1012137
:100720008015FFF765FF0021A015FFF761FF10BDE1
:1007300010B501210846FFF75BFF00210120FFF7FC
:1007400057FF10BD2DE9F04102460025002600208C
:1007500000230024002791F803C00CF00F0591F846
:1007600003C00CF0100CBCF1000F03D091F802C0D4
:100770004CEA050591F800C0BCF1000F31D01468B7
:1007800000202BE04FF0010C0CFA00F3B1F800C090
:100790000CEA03069E4220D183004FF00F0C0CFAA6
:1007A00003F7BC4305FA03FC4CEA040491F803C0C8
:1007B000BCF1280F06D14FF0010C0CFA00FCC2F876
:1007C00014C00AE091F803C0BCF1480F05D14FF006
:1007D000010C0CFA00FCC2F810C0401C0828D1D350
:1007E0001460B1F800C0BCF1FF0F34DD5468002084
:1007F0002EE000F1080C4FF0010808FA0CF3B1F8F4
:1008000000C00CEA03069E4221D183004FF00F0C7A
:100810000CFA03F7BC4305FA03FC4CEA040491F814
:1008200003C0BCF1280F05D100F1080C08FA0CF840
:10083000C2F8148091F803C0BCF1480F07D100F151
:10084000080C4FF0010808FA0CF8C2F81080401CA0
:100850000828CED35460BDE8F0814FF6FF710180C7
:10086000022181700421C170704702460020936804
:100870000B400BB1012000E0002070470146886862
:1008800080B2704702460020D3680B400BB10120B4
:1008900000E0002070470146C86880B270470161DF
:1008A0007047416170470AB1016100E041617047E2
:1008B000C16070474FF480320A4382618161826176
:1008C00082698269704702460020434B18684FF6E0
:1008D0008073184040EA021008433F4B186070478D
:1008E0003E49C8617047F0B50A4600230024002144
:1008F000002500F00046B6F1004F02D1364EF169F6
:1009000001E0354E7168C0F3034583B200F4401630
:10091000B6F5401F08D121F070612F4E766826F0A1
:1009200070662D4F7E6012E000F48016B6F5801FD1
:1009300006D1032606FA05F4A14341F0706106E0F2
:10094000460D360103FA06F6B14341F0706122B15B
:10095000460D360103FA06F6314300F00046B6F1C3
:10096000004F02D11C4EF16101E01B4E7160F0BDE1
:1009700030B500228B071C0F0F2303FA04F2164B2D
:1009800008338C1053F824309343134C08348D10E3
:1009900044F8253023468C1053F824308C07240F5C
:1009A00000FA04F423430C4C08348D1044F825302D
:1009B00030BD0A49DC310860704700000008014082
:1009C000000C0140001001400014014000180140DB
:1009D000001C0140002001400000014000002042B6
:1009E00010B50446FB48844209D101218803FFF772
:1009F000FFFD00214FF48040FFF7FAFD32E0F6489A
:100A0000844209D101214804FFF7FFFD00214FF482
:100A10000030FFF7FAFD25E0F048844209D10121BA
:100A20008804FFF7F2FD00214FF48020FFF7EDFD71
:100A300018E0EB48844209D10121C804FFF7E5FD25
:100A400000214FF40020FFF7E0FD0BE0E548844271
:100A500008D101210805FFF7D8FD00214FF48010CF
:100A6000FFF7D3FD10BD2DE9F04786B005460E46D1
:100A70000024A24600BFA1460027B08900B100BFF4
:100A80002F462C8A4CF6FF700440F08804432C82D9
:100A9000AC894EF6F3100440B0883189084371895F
:100AA00008430443AC81AC8A4FF6FF400440B08950
:100AB0000443AC8201A8FFF714FDC648874202D167
:100AC000DDF810A001E0DDF80CA0A88900F40040DA
:100AD00040B10AEBCA0000EB0A1031684900B0FBD4
:100AE000F1F807E00AEBCA0000EB0A103168890050
:100AF000B0FBF1F86420B8FBF0F004012009642198
:100B000001FB1089A88900F4004040B1322000EBBD
:100B1000C900B0FBF1F000F00700044308E0322008
:100B200000EB09106421B0FBF1F000F00F0004436A
:100B30002C8106B0BDE8F0874FF41651016000210A
:100B40008180C18001810C21418100218181704718
:100B500010B502460020108A4FF2FF0318400B88A0
:100B60004C8823438C882343CC882343184310822A
:100B700010BD0021018041808180C180704721B17A
:100B8000828942F40052828104E082894DF6FF732B
:100B90001A4082817047F0B50346002400260025E4
:100BA000002040F66A17B94200D100BF1846C1F3D1
:100BB000421401F01F06012707FA06F5012C01D1A6
:100BC0000C3004E0022C01D1103000E014301AB1D6
:100BD00007682F43076002E00768AF430760F0BD76
:100BE0001AB1838A0B43838202E0838A8B43838218
:100BF0007047028A4FF6F0731A400282028A0A4353
:100C00000282704782894FF2FF731A408281828983
:100C10000A438281704721B1828942F002028281B7
:100C200004E082894FF6FD731A4082817047028A80
:100C30004FF6DF731A400282028A0A43028270472B
:100C400021B1028A42F48042028204E0028A4BF619
:100C5000FF731A4002827047C1F308028280704716
:100C600001468888C0F308007047818941F001017E
:100C700081817047028BD2B20283028B42EA012249
:100C800002837047028B02F47F420283028B0A4385
:100C90000283704721B1828A42F02002828204E0FE
:100CA000828A4FF6DF731A408282704721B1828AAE
:100CB00042F01002828204E0828A4FF6EF731A40FB
:100CC0008282704721B1828A42F00802828204E067
:100CD000828A4FF6F7731A408282704721B1828967
:100CE00042F40042828103E08289C2F30E028281D3
:100CF000704721B1828A42F40062828204E0828AD3
:100D00004FF2FF731A4082827047828A4FF6FB735C
:100D10001A408282828A0A438282704721B1828A83
:100D200042F00202828204E0828A4FF6FD731A408A
:100D30008282704702460020B1F5007F00D100BFDB
:100D400013880B400BB1012000E00020704701F434
:100D50000072B2F5007F00D100BFCA430280704725
:100D600070B50246002400230025002040F66A16D4
:100D7000B14200D100BFC1F3421501F01F030126AB
:100D800006FA03F3012D02D19689334006E0022DC5
:100D900002D1168A334001E0968A33400C120126B4
:100DA00006FA04F41688344013B10CB1012000E0B7
:100DB000002070BD10B50022002340F66A14A14245
:100DC00000D100BF0A1201249440A3B2DC43048086
:100DD00010BD0000003801400044004000480040C1
:100DE000004C00400050004010B50446FA488442D0
:100DF00008D101214015FFF7FBFB00216015FFF72B
:100E0000F7FB17E0F548844208D101210015FFF7F0
:100E1000EFFB00212015FFF7EBFB0BE0F0488442CD
:100E200008D10121C803FFF7E3FB00214FF4004084
:100E3000FFF7DEFB10BD30B50246002000235068EE
:100E4000E84C20400D790C6844EA052420435060AA
:100E50009068E54C2040D1E902542C434D7944EA96
:100E6000450420439060D06A20F470000C7C641E1E
:100E7000E4B2234340EA0350D06230BD0021016058
:100E8000017141718160C16001210174704721B11C
:100E9000826842F00102826003E0826822F001026F
:100EA0008260704721B1826842F48072826003E000
:100EB000826822F480728260704710B50023CBB242
:100EC0001AB144681C43446002E044689C43446097
:100ED00010BD816841F00801816070470146002023
:100EE0008A6802F008020AB1012000E00020704781
:100EF000816841F0040181607047014600208A68E2
:100F000002F004020AB1012000E00020704721B184
:100F1000826842F4A002826003E0826822F4A002A8
:100F200082607047014600208A6802F480020AB19C
:100F3000012000E00020704710B50A460021002380
:100F4000416821F46041531E41EA4331416010BDC4
:100F500021B1426842F40062426003E0426822F438
:100F6000006242607047F0B504460D460020002143
:100F7000092D11DDE068A5F10A0606EB46070726F4
:100F800006FA07F18843A5F10A0606EB460603FABE
:100F900006F10843E0600CE0206905EB45070726F1
:100FA00006FA07F1884305EB450603FA06F1084304
:100FB0002061072A0FDA606B561E06EB86071F2694
:100FC00006FA07F18843561E06EB860605FA06F177
:100FD0000843606322E00D2A0FDA206BD61F06EB70
:100FE00086071F2606FA07F18843D61F06EB8606FA
:100FF00005FA06F10843206310E0E06AA2F10D064D
:1010000006EB86071F2606FA07F18843A2F10D06B4
:1010100006EB860605FA06F10843E062F0BD21B151
:10102000826842F48012826003E0826822F48012B7
:10103000826070470146C86C80B2704766484C3089
:101040000068704721B1426842F48062426003E068
:10105000426822F480624260704721B1426842F4E3
:101060008052426003E0426822F48052426070473E
:101070000A460021816821F4E041114381607047F4
:1010800021B1826842F40042826003E0826822F467
:1010900000428260704721B1826842F4021282608D
:1010A00003E0826822F40212826070470146002049
:1010B0008A6802F400120AB1012000E000207047A3
:1010C000F0B504461546002000220026092911DD4E
:1010D000E068A1F10A0707EB470C072707FA0CF2B3
:1010E0009043A1F10A0707EB470703FA07F2104301
:1010F000E0600CE0206901EB410C072707FA0CF2D5
:10110000904301EB410703FA07F210432061A06B03
:10111000C0F30156EF1C06F1010CA7EB0C0707EB1F
:10112000870C1F2707FA0CF29043EF1C06F1010C05
:10113000A7EB0C0707EB870701FA07F21043A06340
:10114000F0BD10B50A4600210023816B21F4401147
:10115000531E41EA0351816310BD08B5002300937B
:101160000090009B0B440093009B1A6008BD08B5DB
:10117000024600200090009201F12800009B1844D4
:1011800000900098006880B208BD0A4600214168BE
:10119000164B1940114341607047416282627047AB
:1011A0000A460021416821F01F0111434160704748
:1011B00040B109490831096841F40001064A083282
:1011C000116007E004490831096821F40001024A6E
:1011D00008321160704700000024014000280140DF
:1011E000003C0140FFFEF0FFFDF7F1FFFFFD3FFF78
:1011F0000246002013680B400BB1012000E00020E4
:101200007047CA430260704770B502460020002351
:1012100000240B125568CEB205EA060415681D407D
:1012200015B10CB1012000E0002070BD00220A12AF
:10123000D34303607047000001684FF6FE7211400F
:1012400001600021016041608160C1608D49884278
:1012500008D18C490839496841F00F01894A083A98
:1012600051608AE087491431884208D1854908399C
:10127000496841F0F001834A083A51607DE08149B4
:101280002831884208D17F490839496841F47061A2
:101290007C4A083A516070E07A493C31884208D172
:1012A00078490839496841F47041764A083A5160F2
:1012B00063E074495031884208D17249083949685D
:1012C00041F470216F4A083A516056E06D4964312B
:1012D000884208D16B490839496841F47001694A6C
:1012E000083A516049E067497831884208D1654938
:1012F0000839496841F07061624A083A51603CE03F
:101300006149884206D1011F096841F00F01021F9F
:10131000116032E05C491431884208D15A49091FF2
:10132000096841F0F001584A121F116025E0564942
:101330002831884208D15449091F096841F4706175
:10134000514A121F116018E04F493C31884208D1C0
:101350004D49091F096841F470414B4A121F116041
:101360000BE049495031884207D14749091F0968B4
:1013700041F47021444A121F1160704710B50022D9
:10138000026847F6F0739A430C6A8B6823430C6932
:1013900023434C6923438C692343CC6923434C6A20
:1013A00023438C6A23431A430260CB6843600B6873
:1013B00083604B68C36010BD0021016041608160A3
:1013C000C160016141618161C1610162416281620B
:1013D000704721B1026842F00102026004E0026835
:1013E0004FF6FE731A40026070471AB103680B4350
:1013F000036002E003688B430360704741607047FD
:101400000146486880B2704701460020002201F082
:1014100080531BB11C4B083B1A6802E0194B083B78
:101420001A6802EA01030BB1012000E000207047B6
:1014300000F0805119B11449091F086002E01149F8
:1014400008394860704701460020002201F08053AF
:101450001BB10D4B083B1A6802E00A4B083B1A68A7
:1014600002EA01030BB1012000E00020704700F008
:10147000805119B10449091F086002E00149083987
:1014800048607047080002400804024031490143A7
:10149000314A1160704770B5002100230F22C478D3
:1014A00004B32D4C246804F4E064C4F5E064210A1C
:1014B000C1F10403CA40447804FA03F1847814406B
:1014C00021430901254C0678A155047804F01F0535
:1014D0000124AC4005786D11AD0005F1E025C5F89B
:1014E000004109E0047804F01F050124AC401C4DC4
:1014F0000678761145F8264070BD1A4A0A40024324
:10150000154B1B1F1A60704739B1134A121D126820
:101510000243114B1B1D1A6006E00F4A121D126890
:1015200082430D4B1B1D1A607047042808D14FF0F1
:10153000E021096941F004014FF0E022116107E068
:101540004FF0E021096921F004014FF0E022116120
:10155000704700000000FA050CED00E000E400E038
:1015600080E100E080FFFF1F002044490860091D62
:101570000860091D0860091D086041483F49143191
:101580000860704700213D498279002A3AD00A4616
:10159000126803689A430B461A600A1D12680368B2
:1015A0009A430B1D1A60027911440A6803681A43B2
:1015B0000A60324A0832126803689A432F4B083394
:1015C0001A601A1D126803689A432C4B0C331A6078
:1015D0004279102A0ED11A1F126803681A43274B4A
:1015E00008331A601A1D126803681A43234B0C3320
:1015F0001A600DE02149427911440A6803681A43D0
:101600000A6005E0027911440A6803689A430A6097
:1016100070470021016001710C214171002181712D
:1016200070471649103109680143144A103211609D
:10163000704701460020114A143212680A400AB16C
:10164000012000E0002070470C4914310860704709
:10165000014600200022094B1B6803EA0102074BE8
:1016600014331B680B4013B10AB1012000E00020C5
:1016700070470249143108607047000000040140BF
:10168000FFFF0F0010B501210807FEF7BEFF002184
:101690004FF08050FEF7B9FF10BD2A49086270472D
:1016A00028490861704701460020274A106820F049
:1016B000E0000843106070472249A031086070477D
:1016C00010B502460020204B186820F0030010439C
:1016D00018601E4B1B6843F004031C4C2360012957
:1016E00001D130BF00E020BF184B1B6823F004037A
:1016F000164C236010BD1448006840F004001249E5
:1017000008600846006840F0020008600F48006862
:1017100040F004000D49086000BF00BF30BF7047B3
:1017200001460020084A52680A400AB1012000E040
:10173000002070470449096841EA8001024A1160AB
:101740007047000000000E420070004010ED00E005
:1017500010B50446FE48844208D10121C014FEF7AA
:1017600047FF0021E014FEF743FFC4E0B4F1804FCF
:1017700008D101210846FEF748FF00210120FEF7AD
:1017800044FFB8E0F348844208D101210220FEF76B
:101790003CFF00210220FEF738FFACE0EE48844217
:1017A00008D101210420FEF730FF00210420FEF7BC
:1017B0002CFFA0E0E948844208D101210820FEF76F
:1017C00024FF00210820FEF720FF94E0E448844233
:1017D00008D101211020FEF718FF00211020FEF78C
:1017E00014FF88E0DF48844208D101212020FEF761
:1017F0000CFF00212020FEF708FF7CE0DA4884423D
:1018000008D101214014FEF7F3FE00216014FEF719
:10181000EFFE70E0D548844209D10121C804FEF7EB
:10182000E7FE00214FF40020FEF7E2FE63E0D0481F
:10183000844209D101210805FEF7DAFE00214FF4A8
:101840008010FEF7D5FE56E0CA48844209D1012136
:101850004805FEF7CDFE00214FF40010FEF7C8FE4C
:1018600049E0C548844208D101214020FEF7CDFE61
:1018700000214020FEF7C9FE3DE0C048844208D167
:1018800001218020FEF7C1FE00218020FEF7BDFE71
:1018900031E0BB48844208D101218015FEF7B5FE36
:1018A0000021A015FEF7B1FE25E0B648844209D11B
:1018B00001210804FEF79CFE00214FF48030FEF762
:1018C00097FE18E0B048844209D101214804FEF790
:1018D0008FFE00214FF40030FEF78AFE0BE0AB488C
:1018E000844208D101218804FEF782FE00214FF4D2
:1018F0008020FEF77DFE10BD00220288944B9842A6
:101900000ED0994B98420BD0B0F1804F08D0914B3C
:10191000984205D0904B984202D0904B984204D107
:101920004FF68F731A404B881A438D4B984207D05D
:101930008C4B984204D04FF6FF431A40CB881A4391
:1019400002808B8883850B880385814B98420BD05E
:10195000854B984208D08B4B984205D08A4B9842D1
:1019600002D08A4B984201D10B7A038601238382ED
:10197000704770B5002400220023058C4FF6FE76D8
:1019800035400584028C8388048B4FF68F752C407C
:10199000B51E2C400D882C43751E2A400D892A4304
:1019A0004D882A436A4DA8420BD06F4DA84208D0FB
:1019B000744DA84205D0744DA84202D0734DA84280
:1019C00013D14FF6F7752A404D892A434FF6FB7520
:1019D0002A408D882A434FF6FF652B404FF6FF556E
:1019E0002B408D892B43CD892B4383800483CD8865
:1019F0008586028470BD70B5002400220023058C0A
:101A00004FF6EF7635400584028C8388048B48F6C8
:101A1000FF752C404FF6FF452C400D884FF6FF76A2
:101A200006EA05252C434FF6DF752A400D8906EAA4
:101A300005152A434D8806EA05152A43444DA84258
:101A400002D0494DA8421DD14FF67F752A404D89DD
:101A50004FF6FF7606EA05152A434FF6BF752A4072
:101A60008D8806EA05152A434FF6FF352B404FF2C5
:101A7000FF752B408D8906EA85052B43CD8906EA43
:101A800085052B4383800483CD880587028470BD40
:101A900070B5002400220023058C4FF6FF66354008
:101AA0000584028C8388848B4FF68F752C404FF60B
:101AB000FC752C400D882C434FF6FF552A400D89AC
:101AC0004FF6FF7606EA05252A434D8806EA0525E6
:101AD0002A431F4DA84202D0234DA8421DD14FF2E8
:101AE000FF752A404D894FF6FF7606EA05252A4301
:101AF0004FF6FF352A408D8806EA05252A434EF623
:101B0000FF752B404DF6FF752B408D8906EA0515B4
:101B10002B43CD8906EA05152B4383808483CD882A
:101B20008587028470BD70B5002200230024058CD7
:101B30004EF6FF7635400584038C8488828B48F608
:101B4000FF752A404FF6FF452A400D8820E000002F
:101B5000002C01400004004000080040000C004040
:101B6000001000400014004000340140004C0140CF
:101B7000005001400054014000180040001C00408B
:101B80000020004000400140004401400048014066
:101B90004FF6FF7606EA05252A434DF6FF752B40E2
:101BA0000D8906EA05352B434D8806EA05352B439A
:101BB000FA4DA84202D0FA4DA84208D14BF6FF7563
:101BC0002C408D894FF6FF7606EA85152C438480DC
:101BD0008283CD88A0F84050038470BD828B4FF281
:101BE000FF331A408283828B4FF6FF7303EA01238F
:101BF0001A4382837047F0B50C4615460022002137
:101C00000026078C4EF6FF7C07EA0C070784828BC0
:101C1000018C4FF6FF7707EA043640F6FF473A405B
:101C20004FF6FF7707EA05273A434FF6FF7707EAB3
:101C300003373A43D94FB8420ED0D94FB8420BD0F0
:101C4000B0F1804F08D0D74FB84205D0D64FB84238
:101C500002D0D64FB84206D14DF6FF77394046F450
:101C60008057394305E047F6FF57394044F4805721
:101C7000394382830184F0BD828B4FF6F3731A409F
:101C80008283828B0A4382837047F0B50C461546E7
:101C9000002200210026078C4FF6FF6C07EA0C0794
:101CA0000784828B018C4FF6FF7707EA04264FF6F4
:101CB0000C773A404FF6FF7707EA03172F433A4372
:101CC000B64FB8420ED0B64FB8420BD0B0F1804FED
:101CD00008D0B44FB84205D0B34FB84202D0B34F8A
:101CE000B84206D14FF6FF57394046F48077394362
:101CF00005E04FF2FF57394044F48077394382833F
:101D00000184F0BD028B4FF2FF331A400283028B35
:101D10004FF6FF7303EA01231A4302837047F0B5BD
:101D20000C461546002200210026078C4FF6EF7C5A
:101D300007EA0C070784028B018C4FF6FF7707EA4E
:101D4000041640F6FF473A404FF6FF7707EA03379D
:101D50003A434FF6FF7707EA05273A438F4FB842D9
:101D60000ED08F4FB8420BD0B0F1804F08D08D4FBE
:101D7000B84205D08C4FB84202D08C4FB84206D141
:101D80004FF6DF77394046F01007394305E04FF64C
:101D90005F77394044F01007394302830184F0BD76
:101DA000028B4FF6F3731A400283028B0A430283BD
:101DB0007047F0B50C46154600220021068C4FF600
:101DC000FE773E400684028B018C4FF60C76324043
:101DD0007E1C06EA03162E433243704EB0420ED0EC
:101DE0006F4EB0420BD0B0F1804F08D06D4EB04274
:101DF00005D06D4EB04202D06C4EB04206D14FF6C7
:101E0000FD76314044F00106314305E04FF6F576AA
:101E1000314044F00106314302830184F0BD70B5C6
:101E200005460C465D4885420ED05D4885420BD084
:101E3000B5F1804F08D05B48854205D05A488542AD
:101E400002D05A48854200D100E000BF208850B936
:101E50002389A28861882846FFF7ABFFE1882846DE
:101E6000FFF79EFF25E0208804280AD12389A28855
:101E700061882846FFF753FFE1882846FFF742FFB5
:101E800017E0208808280AD12389A288618828467B
:101E9000FFF7FBFEE1882846FFF7EEFE09E0238905
:101EA000A28861882846FFF7A6FEE1882846FFF74A
:101EB00095FE70BD2DE9F04105460C460026012730
:101EC000608808B9022600E00026A088012801D118
:101ED000022700E001272088A0B92389A288618811
:101EE0002846FFF766FFE1882846FFF759FF238958
:101EF0003A4631462846FFF712FFE1882846FFF7A9
:101F000001FF13E02389A28861882846FFF707FFB5
:101F1000E1882846FFF7F6FE23893A4631462846EF
:101F2000FFF747FFE1882846FFF73AFFBDE8F08159
:101F30000A884B881A438B881A43CB881A430B892B
:101F40001A434B891A438B891A43A0F844207047DF
:101F50004FF6FF71818000210180C18041800172B4
:101F600070470021018041808180C18001814181D1
:101F70008181C181704700210180418001218180E0
:101F80000021C18001817047002101804180818052
:101F9000C18001814181818170470000002C014096
:101FA000003401400004004000080040000C0040E4
:101FB00021B1028842F00102028004E002884FF65B
:101FC000FE731A400280704731B1B0F8442042F4E9
:101FD0000042A0F8442005E0B0F84420C2F30E020D
:101FE000A0F8442070471AB183890B43838102E033
:101FF00083898B43838170478182704741EA020362
:10200000A0F8483070471AB183890B43838102E0FE
:1020100083898B438381704701894FF6F8721140A1
:10202000018170470A46002101894FF68F731940DC
:1020300011430181704730B504460D4629462046BC
:10204000FFF7F0FF208940F00700208130BD2DE927
:10205000F04104460D4616461F46602D06D13B460C
:10206000012231462046FFF75AFE05E03B46012299
:1020700031462046FFF79DFE29462046FFF7D2FF56
:10208000208940F007002081BDE8F08130B50C4682
:1020900000210189C9B24FF6FF7505EA03251543F2
:1020A00025432943018130BD2DE9F04105460E4607
:1020B00017469846002443463A4631462846FFF7DD
:1020C000E5FF2C894FF6F870044044F007044FF602
:1020D0008F70044044F070042C81BDE8F081F0B5AD
:1020E00004460D4616461F463B46324629462046C4
:1020F000FFF7CCFF208940F480402081F0BD0185AE
:10210000828270470A46002101884FF68F7319407A
:10211000114301807047F0B50C4615461E4600215C
:10212000002200230189028B038C4FF6F877394097
:1021300021434FF6FC473A4040F201173A434FF62D
:10214000DD773B404FF6FF7707EA06172F433B4307
:10215000018102830384F0BD0A460021018B4FF602
:102160008F7319401143018370470A460021018B88
:1021700048F6FF7319404FF6FF7303EA0223194331
:10218000018370470A460021818B4FF68F731940F7
:102190001143818370470A460021818B48F6FF7303
:1021A00019404FF6FF7303EA0223194381837047F6
:1021B00021B1028842F08002028004E002884FF6DA
:1021C0007F731A400280704721B1828842F0040276
:1021D000828004E082884FF6FB731A408280704749
:1021E00021B1828842F00802828004E082884FF6A2
:1021F000F7731A408280704721B1828842F0010251
:10220000828004E082884FF6FE731A408280704715
:102210000A460021018B4FF6F773194011430183E1
:1022200070470A460021018B4FF2FF7319404FF6A9
:10223000FF7303EA02231943018370470A46002112
:10224000818B4FF6F77319401143818370470A461B
:102250000021818B4FF2FF7319404FF6FF7303EAA1
:1022600002231943818370470A460021018B4FF6F0
:10227000FB7319401143018370470A460021018B0B
:102280004FF6FF3319404FF6FF7303EA0223194359
:10229000018370470A460021818B4FF6FB7319407A
:1022A0001143818370470A460021818B4FF6FF332B
:1022B00019404FF6FF7303EA0223194381837047E5
:1022C0000A460021018B4FF67F73194011430183A9
:1022D00070470A460021018BC1F30E014FF6FF73D0
:1022E00003EA02231943018370470A460021818BC8
:1022F0004FF67F7319401143818370470A460021CE
:10230000818BC1F30E014FF6FF7303EA02231943D9
:10231000818370470A460021018C4FF6FD731940F6
:102320001143018470470A460021018C4FF6F77370
:1023300019401143018470470A460021018C4FF671
:10234000DF7319404FF6FF7303EA02131943018448
:1023500070470A460021018C4FF67F7319404FF6F3
:10236000FF7303EA02131943018470470A460021F0
:10237000018C4FF6FF5319404FF6FF7303EA022317
:102380001943018470470A460021018C4FF2FF7304
:1023900019404FF6FF7303EA022319430184704783
:1023A0000A460021018C4DF6FF7319404FF6FF736A
:1023B00003EA023319430184704730B50023012436
:1023C0008C40A3B2048C9C430484048C02FA01F573
:1023D000ADB22C43048430BD30B5002304248C40BE
:1023E000A3B2048C9C430484048C02FA01F5ADB2C0
:1023F0002C43048430BD70B50346002000241846E9
:10240000183001258D40ACB21D8CA5431D8409B147
:10241000082909D100EB6100056825F07005056009
:102420000568154305600EE00D1FC5F34E052844F1
:10243000056825F4E045056005684FF6FF7606EA75
:1024400002263543056070BD21B1028842F00202C8
:10245000028004E002884FF6FD731A400280704744
:1024600021B1028842F00402028004E002884FF6A3
:10247000FB731A400280704721B1828842F08002CB
:10248000828004E082884FF67F731A408280704712
:1024900002884FF6F7731A40028002880A430280CE
:1024A000704782884FF68F731A40828082880A4371
:1024B0008280704702894FF6F8731A4002810289C0
:1024C0000A430281704702894FF67F731A400281E6
:1024D00002890A4302817047818470478185704771
:1024E000818670470187704781877047A0F8401048
:1024F000704702884FF6FF431A40028002880A4361
:10250000028070470146888E70470146088F7047E9
:102510000146888F70470146B1F840007047014678
:10252000888C70470146088D704702460020138A48
:102530000B400BB1012000E000207047CA4302822B
:10254000704730B50246002000230024158A05EAB2
:102550000103958905EA010413B10CB1012000E0E3
:10256000002030BDCA430282704700000CB5002035
:10257000019000906C48006840F480306A4908601F
:1025800000BF6948006800F4003000900198401CCA
:102590000190009818B90198B0F5A06FF1D1624888
:1025A000006800F4003010B10120009001E000202C
:1025B00000900098012843D15C48006840F010006A
:1025C0005A4908600846006820F003000860084681
:1025D000006840F002000860534840685249486073
:1025E0000846406848600846406840F4806048609B
:1025F0000846406820F47C1048600846406840F473
:10260000E81048600846006840F08070086000BF2D
:102610004548006800F000700028F9D04248406842
:1026200020F00300404948600846406840F002003E
:10263000486000BF3C48406800F00C000828F9D111
:102640000CBD10B5FFF792FF10BD10B536480068FD
:1026500040F00100344908600846406834490840A9
:102660003149486008460068324908402E490860F0
:102670000846006820F4802008600846406820F47E
:10268000FE0048604FF41F008860FFF7DAFF4FF04C
:1026900000602949086010BD10B50021002000220B
:1026A000214B5B6803F00C0121B1042906D00829F5
:1026B00028D107E0214B224C236027E01F4B204C00
:1026C000236023E0184B5B6803F47010164B5B68C3
:1026D00003F48032022303EB904022B9194B4343A9
:1026E000174C23600DE0104B5B6803F4003323B1FB
:1026F000144B4343124C236003E0104B4343104CF4
:10270000236003E00D4B0E4C236000BF00BF064B5F
:102710005B68C3F303130C4CE15C094B1B68CB40B3
:10272000074C236010BD0000001002400020024052
:102730000000FFF8FFFFF6FE08ED00E000127A004F
:102740002400002000093D002800002010B58CB0B6
:10275000044601210846FDF724FF0021FE48FEF74C
:1027600038FEFE4800900194102002900020039053
:1027700004908020059000200690079008904FF468
:102780000050099000200A906946F348FEF7F6FDD4
:102790004FF48050FEF74CFE0021EF48FEF719FE83
:1027A0000E208DF82C0006208DF82D0002208DF8CB
:1027B0002E0001208DF82F000BA8FEF76CFE0122E1
:1027C0000221E548FEF711FE0CB010BD10B58CB02B
:1027D000044601210846FDF7E4FE0021DE481430DE
:1027E000FEF7F7FDDD4801900294002003902020C1
:1027F000049000200590802006900020079008900B
:1028000009904FF440500A9000200B9001A9D24843
:102810001430FEF7B3FD4FF48030FEF709FE0121BE
:10282000CD481430FEF7D5FD0CB010BD10B500201A
:10283000CB4908604FF40050FEF705FE70B14FF42D
:102840008050FEF7F5FD0021C348FEF7C2FDC549E3
:102850000023C34A886C194602F01EFB10BD08B560
:102860000020009040F22441BC48001FFEF778FA97
:1028700040B30021B8481430FEF7ABFD4FF4803070
:10288000FEF7D6FDB4481430FEF7BAFDC0F12000C3
:10289000C1B2B44880F8411090F84110AE481430ED
:1028A000FEF7ACFD0121AC481430FEF792FDAB48B9
:1028B000001FFEF7D5F9AB4900236A46486C19465C
:1028C00002F0EAFA08BD10B586B00446012144F2D0
:1028D0000400FDF773FE4FF48060ADF800000420A3
:1028E0008DF803006946A048FDF72CFF4FF40070F7
:1028F000ADF8000003208DF8020018208DF80300C9
:1029000069469948FDF71EFF02940020ADF80C00BF
:10291000ADF80E00ADF81000ADF814000C20ADF8C5
:10292000120002A98D48001FFEF79DF825208DF8A2
:10293000040005208DF8050002208DF80600012016
:102940008DF8070001A8FEF7A6FD012240F2244100
:102950008248001FFEF71FF901218048001FFEF783
:102960000EF98048FFF7F2FE7E482130FFF72EFF78
:10297000012280217948001FFEF732F9012240210F
:102980007648001FFEF72CF90021012002F06AF9B9
:10299000744948640846406C28B100231A46486CC4
:1029A000194602F012FA0021012002F05BF96D498C
:1029B00088640846806C28B100231A46886C194642
:1029C00002F003FA06B010BDF0B503460D461646F8
:1029D000002729460A2E03D0002008702846F0BDA3
:1029E00033B9302001F8010B002008702846F6E7C3
:1029F000002B03DA2D2001F8010B5B4242F210722A
:102A00000DE093FBF2F404B937B104F1300001F8A2
:102A1000010B04FB123301270A2092FBF0F2002A7B
:102A2000EFDC002008702846D9E70FB470B586B0F7
:102A30004C4C0020214681F820000BA801907DE03D
:102A40000A9800785C2828D10A98401C0A900078DF
:102A50006E280FD072281BD10D2004F8010B4148BD
:102A600090F82000401C3F4981F820000A98401C43
:102A70000A9011E00A2004F8010B3A4890F820006F
:102A8000401C384981F820000A98401C0A9003E055
:102A90000A98401C0A9000BF50E00A980078252848
:102AA0003ED10A98401C0A900078642817D07328F9
:102AB00031D1019820C801900AE0287804F8010B70
:102AC000284890F82000401C264981F820006D1C01
:102AD00028780028F1D10A98401C0A901FE001983C
:102AE00040C801900A2202A93046FFF76DFF02ADEF
:102AF0000AE0287804F8010B1A4890F82000401CDE
:102B0000184981F820006D1C28780028F1D10A9816
:102B1000401C0A9003E00A98401C0A9000BF0DE098
:102B20000A98007804F8010B0A98401C0A900D4896
:102B300090F82000401C0B4981F820000A9800788A
:102B400000287FF47DAF074890F820100248FEF778
:102B500055FC0121004809E04400024004380140CE
:102B6000380000201C01002000080140FEF731FC65
:102B700006B070BC5DF814FB3FB581B088203E49BB
:102B80000870AF2048701C2088700020C870087141
:102B900048718871C871087248728872C872087367
:102BA00048738873C873087448748874C874087547
:102BB0003249019803F061F9054603F0C9FA009023
:102BC0009DF801002C4948759DF8000088752B4937
:102BD000029803F052F9054603F0BAFA00909DF806
:102BE00001002549C8759DF800000876244903981E
:102BF00003F043F9054603F0ABFA00909DF801009D
:102C00001D4948769DF8000088760020C876087730
:102C100048778877002400BF04E01749095C214405
:102C2000CCB2401C1F28F8DB1348C477202115487C
:102C3000FEF7E4FB01211348FEF7CBFB05B030BDE6
:102C400010B54FF4E130FFF73EFE0F480A49086522
:102C50000E48486510BD70B504460D46E1B20C48FB
:102C6000FDF7FAFF00BF0A48008800F08000002846
:102C7000F9D0204670BD00001C0100200000C842B1
:102C800000002041440002402B2A0008792B000854
:102C90000038014010B58CB0044601210846FDF70C
:102CA00080FC0021FE48FEF794FBFE480090019452
:102CB00010200290002003900490802005900020B6
:102CC0000690079008904FF40050099000200A9059
:102CD0006946F348FEF752FB4FF08070FEF7A8FB01
:102CE0000021EF48FEF775FB11208DF82C0006201F
:102CF0008DF82D0002208DF82E0001208DF82F0078
:102D00000BA8FEF7C8FB01220221E548FEF76DFB88
:102D10000CB010BD10B58CB0044601210846FDF77B
:102D200040FC0021DE481438FEF753FBDD480190DB
:102D30000294002003902020049000200590802021
:102D4000069000200790089009904FF440500A9098
:102D500000200B9001A9D2481438FEF70FFB4FF466
:102D60008010FEF765FB0121CD481438FEF731FBDA
:102D70000CB010BD10B50020CB4908604FF00070BA
:102D8000FEF761FB78B14FF08070FEF751FB002138
:102D9000C348FEF71EFBC5490023C34AD1F82804E7
:102DA000194602F079F810BD08B50020009040F2F5
:102DB0002441BC48001FFDF7D3FF40B30021B848B1
:102DC0001438FEF706FB4FF48010FEF731FBB448D1
:102DD0001438FEF715FBC0F1200081B2B348A0F80B
:102DE00022142021AE481438FEF708FB0121AC481C
:102DF0001438FEF7EEFAAB48001FFDF731FFAB4980
:102E000000236A46D1F82404194602F045F808BDAB
:102E100010B586B0044601214804FDF7DCFB012112
:102E20000420FDF7CBFB0820ADF8000004208DF84E
:102E3000030069469E48FDF785FC0420ADF80000BC
:102E400003208DF8020018208DF803006946984889
:102E5000FDF778FC02940020ADF80C00ADF80E00F0
:102E6000ADF81000ADF814000C20ADF8120002A966
:102E70008C48001FFDF7F7FD26208DF80400052083
:102E80008DF8050002208DF8060001208DF807005E
:102E900001A8FEF700FB012240F224418148001FF7
:102EA000FDF779FE01217F48001FFDF768FE7F488E
:102EB000FFF7F0FE7F48FFF72DFF012280217948C0
:102EC000001FFDF78DFE012240217648001FFDF70F
:102ED00087FE0021012001F0C5FE7449C1F82404D9
:102EE0000846D0F8240430B100231A46D1F824044F
:102EF000194601F06AFF0021012001F0B3FE6B4981
:102F0000C1F828040846D0F8280430B100231A4636
:102F1000D1F82804194601F058FF06B010BDF0B5ED
:102F200003460D461646002729460A2E03D00020E8
:102F300008702846F0BD33B9302001F8010B00209D
:102F400008702846F6E7002B03DA2D2001F8010B64
:102F50005B4242F210720DE093FBF2F404B937B118
:102F600004F1300001F8010B04FB123301270A20A1
:102F700092FBF0F2002AEFDC002008702846D9E727
:102F80000FB470B586B0494C00202146A1F800046A
:102F90000BA801907DE00A9800785C2828D10A9857
:102FA000401C0A9000786E280FD072281BD10D208B
:102FB00004F8010B3D48B0F80004401C3B49A1F85F
:102FC00000040A98401C0A9011E00A2004F8010B42
:102FD0003648B0F80004401C3449A1F800040A98AF
:102FE000401C0A9003E00A98401C0A9000BF50E081
:102FF0000A98007825283ED10A98401C0A9000784B
:10300000642817D0732831D1019820C801900AE0B4
:10301000287804F8010B2548B0F80004401C234927
:10302000A1F800046D1C28780028F1D10A98401CF2
:103030000A901FE0019840C801900A2202A9304678
:10304000FFF76DFF02AD0AE0287804F8010B17487E
:10305000B0F80004401C1549A1F800046D1C287844
:103060000028F1D10A98401C0A9003E00A98401CFD
:103070000A9000BF0DE00A98007804F8010B0A9846
:10308000401C0A900948B0F80004401C0749A1F808
:1030900000040A98007800287FF47DAF03480BE015
:1030A00080000240044400403C00002074010020E5
:1030B0000008014076050020B0F80004B0F5806FEC
:1030C00004DB4FF480601249A1F80004104900238A
:1030D0005A1ED1F82804194601F030FF012809D101
:1030E0000B48B0F800140B48FEF788F90121094895
:1030F000FEF76FF906B070BC5DF814FB10B54FF425
:10310000E130FFF785FE04480149C1F8300410BDE5
:103110007401002080000240812F000810B58CB09F
:10312000044601210846FDF73CFA0021FE48FEF75F
:1031300050F9FE4800900194102002900020039066
:1031400004908020059000200690079008904FF48E
:103150000050099000200A906946F348FEF70EF9E6
:103160001020FEF765F90021EF48FEF732F90C2038
:103170008DF82C0004208DF82D0002208DF82E00F3
:1031800001208DF82F000BA8FEF785F901220221FE
:10319000E548FEF72AF90CB010BD10B58CB0044616
:1031A00001210846FDF7FDF90021DF481430FEF744
:1031B00010F9DE4801900294002003904FF48060E3
:1031C0000490002005908020069000200790089031
:1031D00009904FF440500A9000200B9001A9D2486A
:1031E0001430FEF7CBF84FF48070FEF721F901217F
:1031F000CD481430FEF7EDF80CB010BD10B500202E
:10320000CB4908602020FEF71EF970B11020FEF7B0
:103210000FF90021C448FEF7DCF8C6490023C44A70
:10322000D1F80808194601F037FE10BD08B5002096
:10323000009040F22441BD48001FFDF791FD48B3C6
:103240000021B9481430FEF7C4F84FF48070FEF73F
:10325000EFF8B5481430FEF7D3F8C0F5806081B2BE
:10326000B448A0F802184FF48061AF481430FEF75C
:10327000C5F80121AC481430FEF7ABF8AB48001F8D
:10328000FDF7EEFCAB4900236A46D1F80408194665
:1032900001F002FE08BD10B586B004460121880485
:1032A000FDF799F901210820FDF788F94FF4006036
:1032B000ADF8000004208DF8030069469E48FDF734
:1032C00041FA4FF48060ADF8000003208DF8020051
:1032D00018208DF8030069469748FDF733FA0294E9
:1032E0000020ADF80C00ADF80E00ADF81000ADF800
:1032F00014000C20ADF8120002A98C48001FFDF745
:10330000B2FB27208DF8040005208DF8050002206F
:103310008DF8060001208DF8070001A8FEF7BBF824
:10332000012240F224418148001FFDF734FC0121B5
:103330007E48001FFDF723FC7E48FFF7EFFE7F4825
:10334000FFF72BFF012280217848001FFDF748FC82
:10335000012240217548001FFDF742FC0021012099
:1033600001F080FC7349C1F804080846D0F804084D
:1033700030B100231A46D1F80408194601F025FDA2
:103380000021012001F06EFC6A49C1F808080846D6
:10339000D0F8080830B100231A46D1F808081946B9
:1033A00001F013FD06B010BDF0B503460D461646FC
:1033B000002729460A2E03D0002008702846F0BDB9
:1033C00033B9302001F8010B002008702846F6E7D9
:1033D000002B03DA2D2001F8010B5B4242F2107240
:1033E0000DE093FBF2F404B937B104F1300001F8B9
:1033F000010B04FB123301270A2092FBF0F2002A92
:10340000EFDC002008702846D9E70FB470B586B00D
:10341000484C00202146A1F800040BA801907DE053
:103420000A9800785C2828D10A98401C0A900078F5
:103430006E280FD072281BD10D2004F8010B3D48D7
:10344000B0F80004401C3B49A1F800040A98401C55
:103450000A9011E00A2004F8010B3648B0F8000485
:10346000401C3449A1F800040A98401C0A9003E06B
:103470000A98401C0A9000BF50E00A98007825285E
:103480003ED10A98401C0A900078642817D073280F
:1034900031D1019820C801900AE0287804F8010B86
:1034A0002448B0F80004401C2249A1F800046D1C17
:1034B00028780028F1D10A98401C0A901FE0019852
:1034C00040C801900A2202A93046FFF76DFF02AD05
:1034D0000AE0287804F8010B1648B0F80004401CF4
:1034E0001449A1F800046D1C28780028F1D10A982D
:1034F000401C0A9003E00A98401C0A9000BF0DE0AF
:103500000A98007804F8010B0A98401C0A900948B0
:10351000B0F80004401C0749A1F800040A9800789C
:1035200000287FF47DAF0BE01C00024004480040FF
:1035300040000020A8050020000C0140AA0900203E
:103540001648B0F80004B0F5806F04DB4FF48060DB
:103550001249A1F80004114900235A1ED1F80808A5
:10356000194601F0EBFC012809D10C48B0F8001411
:103570000B48FDF743FF01210948FDF72AFF06B07C
:1035800070BC5DF814FB10B54FF4E130FFF783FE1B
:1035900004480249C1F8100810BD0000A805002029
:1035A0001C0002400B34000810B5DF484078DE49AB
:1035B000097840EA012000B2DC490880DA48C07886
:1035C000D949897840EA012000B2D8494880D648D4
:1035D0004079D549097940EA012000B2D349888071
:1035E000D148407AD049097A40EA0120D049C98AB5
:1035F000401A00B2CF490880CB48C07ACA49897ABC
:1036000040EA0121CA48008B081A00B2C949488023
:10361000C548407BC449097B40EA0121C448408B2E
:10362000081A00B2C34988800846B0F9000005288E
:1036300007DA0846B0F9000010F1050F01DD00209F
:103640000880BC48B0F90200052808DAB948B0F98A
:10365000020010F1050F02DD0020B6494880B54890
:10366000B0F90400052808DAB248B0F9040010F1F6
:10367000050F02DD0020AF498880AF48007838B9D7
:10368000AB49886C8047AD4908700120AA49087091
:10369000AA480078012864D0A9480078A0B9A948B0
:1036A0000168A94888470020A149C8820021A04894
:1036B000018341830020A5490860A5490860A54908
:1036C000086001209E4908709A48B0F900009F499F
:1036D000096808449D4908609648B0F902009C4971
:1036E000096808449A4908609248B0F90400994969
:1036F000096808449749086091480078C8282BDB7E
:10370000924800688E49097890FBF1F000B2884930
:10371000C8828F4800688A49097890FBF1F001B2AD
:10372000834801838B4800688549097890FBF1F054
:1037300001B27F48418300208149087001207F4900
:10374000087080480168804888477949486B8047FD
:103750007749486C804710BD79480078401C78490B
:10376000087000BFF7E710B56F4B0E223B21D02049
:1037700000F0E5FA10BDF8B506460F4614461D46A2
:103780006B4601223946304600F0D9FA2DB10120AE
:10379000A0409DF80010084305E00120A0409DF8DE
:1037A000001021EA0000C0B200906B4601223946A9
:1037B000304600F0F6FAF8BD2DE9F8430746884692
:1037C00014461D46089E6B4601224146384600F0CD
:1037D000B6FA601CFF2101FA00F0C4F10801294487
:1037E000491EFF220A41104300F0FF09C5F10800FD
:1037F00006FA00F0C6B2C4F1070006419DF80000C9
:1038000000EA090000909DF80000304300906B46EC
:1038100001224146384600F0C4FABDE8F88338B5C5
:103820000446032302226B21D0200094FFF7C4FF3B
:1038300038BD38B50446022304221B21D020009451
:10384000FFF7BAFF38BD38B50446022304221C2115
:10385000D0200094FFF7B0FF38BD10B504462346D2
:1038600006226B21D020FFF786FF10BD10B504465D
:10387000234605226A21D020FFF77DFF10BD10B539
:103880000446234601223721D020FFF774FF10BDE4
:1038900038B50446032302221A21D0200094FFF7F2
:1038A0008BFF38BD002106E04CF250320AB1531EA6
:1038B0009AB24A1CD1B28142F6DB704708B50020AB
:1038C0000090FFF7CAFFC820FFF7ECFF0120FFF7C9
:1038D000A6FF3220FFF7E6FF6B4601221A21D02017
:1038E00000F02DFA3220FFF7DDFF0320FFF7A1FFE4
:1038F0003220FFF7D7FF0120FFF7A5FF3220FFF7A7
:10390000D1FF0320FFF7C4FF3220FFF7CBFF0020D9
:10391000FFF7ACFF3220FFF7C5FF0120FFF7AFFF35
:103920003220FFF7BFFF08BDBC0D00205200002071
:103930001C0E0020580000205F0000205E000020C8
:103940006C000020E40D00200020FE01600000203B
:10395000640000206800002008B501210846FCF73B
:1039600020FE01214FF40270FCF728FE0220ADF882
:10397000000000208DF8030069464648FCF7E2FE8F
:103980000120ADF8000000208DF803006946414891
:10399000FCF7D8FE08BD00B591B03F48FDF74CFCE0
:1039A0003E4806903E48079000200890022009906B
:1039B00000200A900B904FF480700C9080000D90C6
:1039C00020200E9000020F900020109080200B907D
:1039D00040000C9080000D900220099006A92E480E
:1039E000FDF7CCFC01212C48FDF7F3FC00200190F1
:1039F00001208DF808008DF809004FF46020039035
:103A00000020049002208DF8140001A923484C38AE
:103A1000FDF711FA05230122092120484C38FDF752
:103A2000A2FA0523022208211C484C38FDF79BFA14
:103A300001211A484C38FDF735FA012117484C3856
:103A4000FDF725FA15484C38FDF743FA00BF134837
:103A50004C38FDF743FA0028F9D110484C38FDF7EF
:103A600047FA00BF0D484C38FDF747FA0028F9D156
:103A700001210A484C38FDF74AFA11B000BD10B5D3
:103A8000FFF76AFFFFF787FF10BD10B5FFF7F7FFDD
:103A900010BD0000000C0140080002404C24014011
:103AA0007400002008B501210820FCF787FDC02024
:103AB000ADF8000010208DF8030003208DF80200FF
:103AC0006946F748FCF73EFE08BD10B5F4480068AB
:103AD00020F07040F24908600846006840F040500D
:103AE00008600120EF490860EF49C1F898010420FF
:103AF00000F0F5F90020EB490860042000F0EFF930
:103B00000020E949C1F8980110BD10B5E4480068EB
:103B100020F07040E24908600846006840F04050DC
:103B200008600020DF49091F0860DF49C1F89C01D7
:103B3000042000F0D4F90120DA49091F0860DA49AD
:103B4000C1F89C01042000F0CAF910BD10B5002492
:103B5000D348006820F07040D149086008460068EA
:103B600040F0004008600120CE49086000F0B7F93D
:103B70000120CD49C1F8980100F0B1F90AE0601CBC
:103B8000C4B2322C03DDFFF7C0FF012010BD0120BD
:103B900000F0A5F9C348803800680028EFD1C1497A
:103BA000091F086000BFF1E710B50020BD49091FDB
:103BB0000860BB48006820F07040B94908600846BA
:103BC000006840F0405008600020B749C1F89C01EF
:103BD000022000F084F90120B249091F0860022088
:103BE00000F07DF90020B049C1F8980110BD10B572
:103BF0000020AC49091F0860A948006820F0704007
:103C0000A74908600846006840F04050086001205D
:103C1000A549C1F89C01022000F061F90120A149E9
:103C2000091F0860022000F05AF900209E49C1F8DF
:103C3000980110BD70B504469948006820F07040A6
:103C4000974908600846006840F04050086000202E
:103C50009449091F0860002517E0E00991490860B0
:103C60006006040E022000F03AF901208E49C1F8E6
:103C70009801022000F033F900208A49091F0860EA
:103C8000022000F02CF9681CC5B2082DE5DB70BDE0
:103C900070B5054600248248006820F070408049D5
:103CA00008600846006840F000400860002617E001
:103CB00000207C49091F0860022000F010F9012053
:103CC0007949C1F898016006040E7648803800688A
:103CD00008B1601CC4B2022000F001F9701CC6B229
:103CE000082EE5DB15B1FFF75FFF01E0FFF77FFF6F
:103CF000204670BD70B505460E460024FFF7E5FE70
:103D00002846FFF797FF641CFFF720FF3046FFF7B8
:103D100091FF641CFFF71AFFFFF7F7FEFFF7D5FED0
:103D2000691CC8B2FFF786FF641CFFF70FFF002075
:103D3000FFF7AEFF0446FFF7E8FE204670BD2DE911
:103D4000F0410746884615461E460024FFF7BDFE93
:103D50003846FFF76FFFFFF7F9FE4046FFF76AFFAF
:103D6000FFF7F4FEFFF7B1FE791CC8B2FFF762FF60
:103D7000FFF7ECFE00BF0DE0681EA04204D001205A
:103D8000FFF786FF305503E00020FFF781FF305535
:103D9000601CC4B2AC42EFDBFFF7B7FE0020BDE809
:103DA000F0812DE9F04180460D4616461F4600245D
:103DB000FFF78BFE4046FFF73DFFFFF7C7FE2846A3
:103DC000FFF738FFFFF7C2FE00BF06E0385DFFF7E0
:103DD00031FFFFF7BBFE601CC4B2B442F6DBFFF755
:103DE00094FE0020BDE8F08170B505460E461446ED
:103DF00031462846FFF77EFF2070012070BD37B5A1
:103E000004460D4602AB012229462046FFF7C9FFB2
:103E10003EBD2DE9F8430746884614461D46089ED8
:103E20006A4641463846FFF7DFFF28B3601CFF2192
:103E300001FA00F0C4F108012944491EFF220A4199
:103E4000104300F0FF09C5F1080006FA00F0C6B201
:103E5000C4F1070006419DF8000000EA0900009047
:103E60009DF80000304300909DF800204146384600
:103E7000FFF7C5FFBDE8F8830020FBE7F8B506466D
:103E80000F4614461D466A4639463046FFF7ACFFDA
:103E900065B10120A0409DF8001008430CE000002F
:103EA000000C01409C812142008021420120A04061
:103EB0009DF8001021EA0000C0B200909DF800209B
:103EC00039463046FFF79BFFF8BD38B5044601F090
:103ED00016FD00902146684601F02CFB38BD38B530
:103EE000044601F00CFD00900021684601F022FB21
:103EF00038BD002106E04CF250320AB1531E9AB28E
:103F00004A1C91B28142F6DB7047000010B588B0C0
:103F1000044601210220FCF75EFB4048FDF718FC37
:103F2000ADF808404720ADF804000020ADF80A00C5
:103F3000ADF8060001A93948FDF7DEFC012137483C
:103F4000FEF7FCFA6020ADF810000120ADF8120079
:103F50000020ADF816000220ADF8180004A92F4883
:103F6000FDF749FD08212D48FEF75BF901212B489B
:103F7000FEF71EF901212948FEF71AF808B010BD16
:103F800010B588B0044601210420FCF724FB244826
:103F9000FDF7DEFBADF808404720ADF80400002037
:103FA000ADF80A00ADF8060001A91D48FDF7A4FC14
:103FB00001211B48FEF7C2FA6020ADF81000012075
:103FC000ADF812000020ADF816000220ADF8180080
:103FD00004A91348FDF7A7FD08211148FEF737F99A
:103FE0006020ADF810000120ADF812000020ADF8FF
:103FF00016000220ADF8180004A90948FDF748FD95
:1040000008210748FEF71AF901210548FEF7D0F804
:1040100001210348FDF7CCFF08B010BD00040040AB
:104020000008004008B501210920FCF7C7FA4FF449
:104030008050ADF8000003208DF8020010208DF8AC
:10404000030069466948FCF77DFB4FF480516748DF
:10405000FCF725FC01210420FCF7B0FA4FF40060C6
:10406000ADF8000003208DF8020048208DF8030011
:1040700069465F48FCF766FB4FF48050ADF80000DE
:1040800003208DF8020048208DF803006946584847
:10409000FCF758FB01214FF0C050FCF79CFA08BD1B
:1040A0000EB54FF48030FDF7E4FA4FF48030019004
:1040B00000208DF808000C208DF8090001208DF8F3
:1040C0000A0001A8FDF75EFA01208DF8000000202B
:1040D0008DF801008DF8020001208DF8030068467C
:1040E000FDF7D9F9E020FDF7DEFA0120FDF7D8FA57
:1040F0000EBD10B54FF48030FDF7AAFA90B14FF421
:104100008030FDF7B6FA3B48407A18B13948407A1A
:10411000022807D102203749087201F005FA354913
:10412000C868804710BD10B54FF400412F48FCF718
:10413000B8FB3220FFF7DDFE4FF400412B48FCF7BF
:10414000AEFB2D49C86A80474FF480512748FCF7E1
:10415000A8FB2A480168002088470120FFF77DFB63
:1041600008212248FCF79DFB4FF4FA70FFF7C1FECF
:104170000120FDF7A1FAFDF7BEFA10BD10B54FF40E
:1041800080511A48FCF78BFB10BD70B54FF40061ED
:104190001748FCF76AFB70B91649486802F005F841
:1041A00004464FF06632164B02F012F803D8012095
:1041B000104948720CE04FF480510D48FCF755FB54
:1041C00018B902200B49487202E0002009494872E0
:1041D00070BD10B5FFF726FFFFF762FF09480549DC
:1041E000C860094808610948486110BD000C0140D9
:1041F00000080140CC0D0020E40D002070000020DC
:1042000066661040274100087D4100088B41000888
:104210002DE9F041002500260027FFF7A4FAFFF75B
:10422000C3F9FE480088FE49FE4A127821F81200C0
:10423000FA484088FC49FB4A127821F81200F748F6
:104240008188FA48F74A127820F8121000240DE00D
:10425000F34830F914000544F34830F914000644DB
:10426000F24830F914000744601CC4B21E2CEFDB86
:104270001E2095FBF0F000B2ED4908801E2096FB51
:10428000F0F000B248801E2097FBF0F000B288806A
:10429000E4480078401CE3490870084600781E286E
:1042A00001D100200870BDE8F08101B5A4B0E1485B
:1042B000B0F90000099001F03AFFDF4ADF4BCDE989
:1042C0000A0101F04AFECDE90C0101F099FF2290AC
:1042D000D848B0F90200099001F029FFD64AD74B1F
:1042E000CDE90A0101F039FECDE90C0101F088FFAA
:1042F0002190D048B0F90400099001F018FFCE4A8F
:10430000CE4BCDE90A0101F028FECDE90C0101F008
:1043100077FF2090C648B0F900000D9001F0FEFE36
:104320001F90C348B0F902000D9001F0F7FE1E90F7
:10433000BF48B0F904000D9001F0F0FE1D90C04898
:104340000168006801F099FD1590BE480168BC48FD
:10435000006801F092FD1490BB480168B8480068FD
:1043600001F08BFD1390B7480168006801F085FDEE
:104370001290B6480168B348006801F07EFD1190C4
:10438000B1480168006801F078FD1090AF480168FD
:10439000AD48006801F071FD0F90AC4801680068FD
:1043A00001F06BFD0E90DDE91E1001F066FD0C9032
:1043B0001D9901F062FD00210D9001F03DFF01D13A
:1043C00025B000BD1D99084601F057FD08901E99C3
:1043D000084601F052FD06901F99084601F04DFD78
:1043E0000590069901F0F1FC0790089901F0EDFCA9
:1043F000099001F0DAFECDE90A0102F0ABFDCDE94A
:104400000C0101F0FDFE1C901C991F9801F067FD46
:104410001F901C991E9801F062FD1E90DDE91C1092
:1044200001F05DFD1D901399119801F020FD4FF0F2
:1044300080410D9001F021FD1B900F99149801F01F
:10444000C4FC4FF080410D9001F017FD1A901299B5
:10445000159801F00CFD0C90109901F008FD0D90DD
:104460000E9901F0B2FC19901A991D9801F005FD02
:104470000D9019991E9801F000FD0C900D9901F016
:10448000F6FC189019991F9801F0F7FC0D901B99F4
:104490001D9801F0F2FC0C900D9901F0E8FC1790CA
:1044A0001B991E9801F0E9FC0D901A991F9801F0D4
:1044B000E4FC0C900D9901F0DAFC16906449189810
:1044C00001F0DBFC0D90634801680D9801F07DFC64
:1044D000604908605E49179801F0CFFC0D905E4876
:1044E00001680D9801F071FC5B4908605849169805
:1044F00001F0C3FC0D90594801680D9801F065FC6E
:10450000564908605648189901F0B7FC0C9022995A
:1045100001F05BFC0D904F4801680D9801F055FCCF
:1045200022904F48179901F0A8FC0C90219901F0B6
:104530004CFC0D90484801680D9801F046FC219014
:104540004748169901F099FC0C90209901F03DFC28
:104550000D90424801680D9801F037FC20903B48CF
:104560002099006801F089FC0B9037482199006878
:1045700001F083FC09903348006880F00040079008
:10458000229901F07AFC0890099901F070FC0A90D8
:104590000B9901F06CFC33490C9001F06EFC0D900E
:1045A000274801680D9801F010FC2549086027484C
:1045B0002199006801F061FC0B9023482099006864
:1045C00001F05BFC09901E482299006801F055FC3F
:1045D0000890099901F0F9FB0A900B9901F047FC4A
:1045E00020490C9001F049FC0D90164801680D9887
:1045F00001F0EBFB1349086014482299006801F0B0
:104600003CFC0B900F482099006801F036FC0990A3
:104610000B482199006801F030FC25E05200002091
:10462000840E0020A8000020C00E0020FC0E0020F8
:1046300084000020580000202877442A3174513F1C
:104640008C000020900000209400002098000020A2
:104650006F12833A9C000020A0000020A4000020DC
:10466000000020410AD7A33B0890099901F0FFFB05
:104670000A900B9901F0A9FB87490C9001F0FDFB12
:104680000D90864801680D9801F09FFB83490860F2
:1046900082482299006801F0F0FB0B908048219934
:1046A000006801F0EAFB09907E482099006801F05B
:1046B000E4FB0890099901F088FB0A900B9901F03E
:1046C000D6FB75490C9001F0D8FB0D907648016837
:1046D0000D9801F07AFB744908600846016800688B
:1046E00001F0CBFB08906D480168006801F0C5FB44
:1046F00006906B480168006801F0BFFB04906948B0
:104700000168006801F0B9FB0390049901F05DFBBA
:104710000590069901F059FB0790089901F055FBA7
:10472000099001F042FDCDE90A0102F013FCCDE948
:104730000C0101F065FD1C905A481C99006801F0BD
:10474000CEFB5849086056481C99006801F0C7FB29
:104750005349086051481C99006801F0C0FB4F495B
:10476000086051481C99006801F0B9FB4E49086087
:104770004C4801684FF0804001F07FFB04904748AF
:104780000168049801F079FB0690454801684FF0F4
:10479000404001F072FB049043480168049801F026
:1047A0006CFB0590069901F010FB079001F0FDFCF1
:1047B000CDE9080102F0C6F84FF066323B4BCDE977
:1047C0000A0101F0CAFBCDE90C0101F019FD2499A1
:1047D0004860324801684FF0804001F04EFB019084
:1047E0002E480168019801F048FB03902C480168AD
:1047F0004FF0404001F041FB0190294801680198C9
:1048000001F03BFB0290039901F031FB4FF07E5128
:10481000049001F0DAFA059001F0C7FCCDE9080137
:10482000204801684FF0804001F027FB02901C48AF
:104830000168029801F021FB0490184801684FF0CC
:10484000804001F01AFB029017480168029801F0BD
:1048500014FB0390049901F0B8FA059001F0A5FC4F
:10486000CDE90601DDE9082302F0B4FA4FF0663223
:104870000E4BCDE90A0101F070FBCDE90C0101F00E
:10488000BFFC2499086000BF9AE510B5FFF716F841
:104890000749086C804710BD0AD7A33B940000204D
:1048A000900000208C0000209800002066A64C405C
:1048B0001C0E00202DE9F04F89B000245FE04B482A
:1048C00030F824000FFA80F9484850F824004FEAE5
:1048D000204A484601F022FC80464FF0854101F015
:1048E000CCFA07464FF08E4101F0F9FA05465046E2
:1048F00001F014FC80464FF0854101F0BEFA0746F6
:104900004FF08E4101F0EBFA06463146304601F099
:10491000B4FA29460290284601F0AFFA01900299B4
:1049200001F053FA039001F040FCCDE9040102F0DC
:1049300011FB00222E4BCDE9060101F080FB07465A
:1049400001F05EFC834664B94FF08E41584601F099
:1049500094FA074601F015FC80B2264941F824007C
:104960000BE04FF08F41584601F087FA074601F0FF
:1049700008FC80B21F4941F82400601C84B2202C3E
:104980009DDB09B0BDE8F08F10B50024002007E0E2
:10499000194A411C52F8211042F82010411CC8B29B
:1049A0003F28F5DB1548808800041349C1F8FC0056
:1049B00040220E4801F072F8FFF77CFF002010E063
:1049C0000C4951F82010322909DD0A4951F820100C
:1049D000A14204DD074951F8204009490870411CF3
:1049E000C8B22028ECDB002410BD000038100020E5
:1049F0000000504038110020380F002058000020DF
:104A0000A90000202DE9F04104464FF0000800F015
:104A10008BFD3D48006898B93C493D4A1160002132
:104A200051604FF460513B4A51600021116037489A
:104A30004FF4605141601146016001203249086025
:104A400044B1103404F0070020B104F00700C0F1B5
:104A500008000444002C31D0B4F5605F2ED22C4FF6
:104A60003846056801E02F462D686868A04202D2EA
:104A700028680028F7D1274885421FD0386800F100
:104A80001008286838606868001B202810D92E1983
:104A90006868001B70606C6071681D4800E0006809
:104AA000026852688A42FAD302683260066000BF28
:104AB000194968680968081A1749086000F08DFCF0
:104AC0004046BDE8F08170B506463546B6B1103DAA
:104AD0002C4600F029FD61680D4800E0006802687E
:104AE00052688A42FAD30268226004600A49606808
:104AF000096808440849086000F06FFC70BD06486A
:104B00000068704770470000C0000020B811002006
:104B1000AC000020B4000020BC00002000F108011F
:104B200041604FF0FF31816000F10801C160016117
:104B3000002101607047002101617047426853689D
:104B40004B6043688B6053689960516041600861B5
:104B500003685B1C0360704710B502460B685C1C61
:104B60000CB9106907E002F1080000E040684468F1
:104B700024689C42FAD944684C604C68A160886003
:104B800041600A611468641C146010BDD0E90132F0
:104B90009A60D0E901235A6001694A68824201D1D2
:104BA00082684A60002202610A68521E0A607047E9
:104BB000001F4FF080730360001F0160001F00237F
:104BC0000360143802602038704723484FF0E0211A
:104BD000486107200861704710B52048006840F41C
:104BE00070201E4908600846006840F07060086048
:104BF000FFF7EBFF00201A490860FBF791FA00204D
:104C000010BD70474FF0805014491C390860704740
:104C100010B5FBF7ADFA12480068401C1049086057
:104C200010BD10B50E480068401E0D4908600846CA
:104C3000006808B9FBF7A3FA10BD10B54FF080501B
:104C400006491C3908600024FBF792FA00F053FB78
:104C5000FBF795FA10BD00003F19010020ED00E0C0
:104C6000C40000202DE9F04105460E464FF0000833
:104C70004DB34C20FFF7C6FE044624B305FB06F0F7
:104C8000471C3846FFF7BEFE20602068E0B1206870
:104C900005FB060060600020A0632068A060681E1D
:104CA000216800FB0610E060E56326644FF0FF30EA
:104CB0006064A06404F11000FFF730FF04F12400E9
:104CC000FFF72CFFA04602E02046FFF7FCFE40461F
:104CD000BDE8F08110B50446FFF79AFF11E0606A65
:104CE00008B9012000E0002050B904F1240000F0D0
:104CF00058FE08B100F0BAFEA06C401EA06400E0AF
:104D000002E0A06C0028EADC00BF4FF0FF30A06496
:104D1000FFF787FFFFF77CFF11E0206908B901204A
:104D200000E0002050B904F1100000F03AFE08B194
:104D300000F09CFE606C401E606400E002E0606C6D
:104D40000028EADC00BF4FF0FF306064FFF769FF26
:104D500010BD70B50446FFF75BFFA06BE16B8842A6
:104D600001D1012000E000200546FFF75AFF284648
:104D700070BD70B504460E461546206C08B37DB96B
:104D80003146226CA06800F0F0FF216CA068084456
:104D9000A060D4E90110884213D32068A06010E01D
:104DA0003146226CE06800F0E0FF216CE068401AB8
:104DB000E0602168E068884203D2216C6068401A94
:104DC000E060A06B401CA06370BDFFB583B00446DB
:104DD0000E461D46002700BFFFF71AFFA06BE16BD0
:104DE000884217D22A4631462046FFF7C2FF606A42
:104DF00008B9012000E0002038B904F1240000F0D7
:104E0000D0FD012801D1FFF7FDFEFFF70AFF0120C9
:104E100007B0F0BD059818B9FFF703FF0020F7E7CA
:104E20001FB901A800F0EDFD0127FFF7FAFE00F021
:104E30007BFBFFF7EDFE606C401C08B9002060644E
:104E4000A06C401C08B90020A064FFF7EAFE05A989
:104E500001A800F0DDFDC0B92046FFF77AFF70B170
:104E600004F11000059900F07EFD2046FFF732FFA7
:104E700000F0B3FA0028AFD1FFF7C4FEACE720463C
:104E8000FFF728FF00F0A9FAA6E72046FFF722FF68
:104E900000F0A3FA0020BBE72DE9F047044688465E
:104EA00016461F464FF00009FBF762F9A06BE16B55
:104EB00088421AD23A4641462046FFF75AFFA06C74
:104EC000401C68B9606A08B9012000E0002050B9B0
:104ED00004F1240000F065FD28B10120306002E0FB
:104EE000A06C401CA064012500E00025FBF747F9F9
:104EF0002846BDE8F08770B50446FFF789FEA06B31
:104F000008B9012000E000200546FFF78AFE284688
:104F100070BD70B504460D46206870B1216CE06824
:104F20000844E0606168E068884201D32068E0607E
:104F30002846226CE16800F018FF70BD2DE9FF41A2
:104F400082B004460F461D464FF0000800BFFFF731
:104F50005FFEA06B58B3E66839462046FFF7D9FFDD
:104F60008DB9A06B401EA063206908B9012000E044
:104F70000020B0B904F1100000F013FD012810D199
:104F8000FFF740FE0DE0E660606A08B9012000E02E
:104F9000002030B904F1240000F003FD08B1FFF750
:104FA00031FEFFF73EFE012006B0BDE8F081049817
:104FB00018B9FFF736FE0020F6E7B8F1000F04D16C
:104FC000684600F01EFD4FF00108FFF72AFE00F0D2
:104FD000ABFAFFF71DFE606C401C08B9002060644E
:104FE000A06C401C08B90020A064FFF71AFE04A9B9
:104FF000684600F00DFDC0B92046FFF77CFF70B198
:1050000004F12400049900F0AEFC2046FFF762FE94
:1050100000F0E3F900289AD1FFF7F4FD97E7204666
:10502000FFF758FE00F0D9F991E72046FFF752FE4E
:1050300000F0D3F90020B7E72DE9F04104460F4610
:1050400016464FF00008FBF793F8A06BE0B1394625
:105050002046FFF75EFFA06B401EA063606C401C03
:1050600068B9206908B9012000E0002050B904F1B6
:10507000100000F096FC28B10120306002E0606C66
:10508000401C6064012500E00025FBF778F8284605
:10509000BDE8F08170B50446FFF7BAFDA56BFFF7D8
:1050A000C0FD284670BD0146886B704710B50446A8
:1050B0002068FFF708FD2046FFF705FD10BD0146FB
:1050C0008A6B0AB9012200E00022104670470146AF
:1050D0008A6BCB6B9A4201D1012200E0002210467C
:1050E0007047000010B5002407E004EB8401F94A82
:1050F00002EB8100FFF712FD641C052CF5D3F64886
:10510000FFF70CFDF548FFF709FDF548FFF706FD31
:10511000F448FFF703FDF448FFF700FDEE48F349BC
:105120000860EE48F249086010BD2DE9F0410446E0
:105130000E4615469846069F1022314604F134006B
:1051400000F037FE002143200155052D00D3042532
:10515000E562201DFFF7EFFC04F11800FFF7EBFC00
:105160002461C5F10500A0616462BDE8F08170B5FD
:1051700005460E464420FFF745FC044694B11EB98F
:10518000A800FFF73FFC00E030462063206B20B909
:105190002046FFF798FC002404E0A900A522206B1C
:1051A00000F0F5FD204670BD2DE9FF4F81B080462F
:1051B00015469946DDE90E7A28461099FFF7D7FF84
:1051C0000446002C56D0681E216B01EB800B2BF09F
:1051D000070B00953A462046119B0299FFF7A5FF61
:1051E0004A4641465846FFF7E3FC2060BAF1000FFB
:1051F00001D0CAF80040FFF70BFDBE480068401C14
:10520000BC490860BC48006840B9BB480460084617
:10521000006801280CD1FFF765FF09E0B748006876
:1052200030B9B5480068C06AB84201D8B2480460D5
:10523000B349E06A0968884202D9B149E06A086066
:10524000B0480068401CAF490860AF49E06A09688F
:10525000884202D9AC49E06A0860E16A01EB810149
:105260009C4A02EB8100211DFFF768FC0126FFF735
:10527000D8FC01E04FF0FF36012E09D19F480068AD
:1052800030B19D480068C06AB84201D2FFF7BAFC4D
:10529000304605B0BDE8F08F70B50446FFF7B8FCA6
:1052A00095480068844200D1002414B992480068EF
:1052B00000E020460546281DFFF768FCA86A18B1E3
:1052C00005F11800FFF762FC291D8648FFF736FC40
:1052D0008E480068401C8D4908608A480068401C60
:1052E00088490860FFF79DFC8448006810B10CB93C
:1052F000FFF788FC70BD70B585480068002866D14E
:1053000084480068401C834908600846006808BB60
:105310007649086876490968744A116074490860DA
:105320007D490968491C7C4A11607049096809680F
:1053300009B9012100E0002121B14FF0FF31774A86
:10534000116006E069490968C968CC68734A6168F8
:10535000116000BF6F48006870490968884235D302
:1053600000BF62480068006808B9012000E0002022
:1053700020B14FF0FF306949086026E05B480068C3
:10538000C068C468656863480068A84202D2634880
:1053900005601AE0201DFFF7F9FBA06A18B104F1BF
:1053A0001800FFF7F3FB5849E06A0968884202D900
:1053B0005549E06A0860E16A01EB8101454A02EB68
:1053C0008100211DFFF7BAFBCBE700BF04E0544882
:1053D0000068401C5249086070BD70B50025FFF799
:1053E00017FC4B480068401E4949086008460068A1
:1053F00000284CD13F480068002848D0002621E012
:105400003748C068C46804F11800FFF7BFFB201DCF
:10541000FFF7BCFB3C49E06A0968884202D93A4977
:10542000E06A0860E16A01EB81012A4A02EB81002F
:10543000211DFFF783FB3049E06A0968C96A884289
:1054400000D301262648006808B9012000E00020AA
:105450000028D5D03248006860B106E0FFF74BFF66
:105460002F480068401E2E4908602D48006800281B
:10547000F4D10126012E03D02A480068012805D165
:105480000125002027490860FFF7BCFB00BFFFF79C
:10549000C8FB284670BD10B5044617480068446034
:1054A0001C480068844207D213480168091D10484F
:1054B0000068FFF751FB0CE00F480168091D0B481D
:1054C0000068FFF749FB15480068844201D2134881
:1054D000046010BDB84900201C4A0020304A00205A
:1054E000444A0020584A00206C4A0020CC0000208A
:1054F000D0000020D8000020C8000020E8000020D4
:10550000E0000020FC000020E4000020D400002087
:10551000EC000020DC000020F8000020000100204A
:10552000F0000020F4000020F9480068401CF84911
:10553000086070472DE9F04104460F464FF000081F
:10554000FFF7F2FF2068C519F24920680968884210
:1055500009D92068A8420FD9EE48006885420BD9C6
:105560004FF0010808E02068A84203D8E948006825
:10557000854201D94FF001082560B8F1000F07D02E
:10558000E5480068001DFFF701FB2846FFF783FF91
:10559000FFF723FF06460EB9FFF734FBBDE8F081A5
:1055A00070B5044600267CB1FFF7BEFFD9480068FD
:1055B0000519D9480068001DFFF7E8FA2846FFF7EB
:1055C0006AFFFFF70AFF06460EB9FFF71BFB70BD27
:1055D00070B50446FFF71CFB14B9CF48006800E023
:1055E00020460646F56AFFF71CFB284670BD2DE9EC
:1055F000F04106460D464FF00008052D00D3042566
:10560000FFF706FBC4480068864200D1002616B9A1
:10561000C148006800E030460446E76AAF422DD03A
:10562000BD4203D92EB14FF0010802E00EB94FF090
:105630000108E562C5F10500A06107EB8701B74AE3
:1056400002EB81016069884213D1201DFFF79EFAA9
:10565000B349E06A0968884202D9B149E06A086042
:10566000E16A01EB8101AD4A02EB8100211DFFF7E8
:1056700065FAB8F1010F01D1FFF7C4FAFFF7D1FACB
:10568000BDE8F081A248006818B10120A549086072
:1056900025E004E0A2480068401EA1490860A04837
:1056A000006800EB80009D4951F820000028F1D0EF
:1056B0009B49096801EB8101984A02EB810041682E
:1056C0004968416000F1080142688A4202D141689C
:1056D000496841604168C9688F4A116000BF7047DE
:1056E00070B50446FFF794FA8B480068844200D1F5
:1056F000002414B98848006800E020460546281DAB
:10570000FFF744FAA86A18B105F11800FFF73EFA4E
:10571000291D8548FFF712FAFFF783FA8CB98348F1
:10572000006810B1FFF76EFA0BE07F48006880490F
:105730000968884203D100207749086001E0FFF73B
:10574000A1FF70BD10B5014600200A46764C536992
:10575000A34201D1012300E0002383B1754C936A79
:10576000A34201D1012300E00023012B07D0936A5B
:105770000BB9012300E00023012B00D1012010BD53
:1057800070B505462C4644B363480068844224D073
:10579000FFF73EFA2046FFF7D5FF01281BD1201D59
:1057A000FFF7F4F95E49E06A0968884202D95C496A
:1057B000E06A0860E16A01EB8101584A02EB81006E
:1057C000211DFFF7BBF95449E06A0968C96A88429C
:1057D00001D3FFF717FAFFF724FA70BD70B505463D
:1057E00000262C462046FFF7ADFF012826D1484869
:1057F0000068F0B94849E06A0968C96A884201D37B
:10580000012000E000200646201DFFF7BFF94449B3
:10581000E06A0968884202D94149E06A0860E16AA1
:1058200001EB81013D4A02EB8100211DFFF786F962
:1058300004E004F118013F48FFF780F9304670BDDD
:1058400010B50446206BFFF73EF92046FFF73BF901
:1058500010BD70B53848006818B3FFF765FE3748CB
:10586000006808B9012000E000200546FFF7B5FDFB
:10587000BDB9FFF7CDF93148C068C468201DFFF7F6
:1058800085F92B480068401E294908602A480068AD
:10589000401E29490860FFF7C4F92046FFF7D0FFF2
:1058A00000BF70BD00BFFFF7D4FF1C48006801288F
:1058B000F9D9FFF7A7F9F6E71FB50020009001908E
:1058C0000290034680221EA103901F48FFF76CFC44
:1058D0000446012C09D1FAF74BFC0120134908605A
:1058E00000200C490860FFF777F91FBD10B5FAF7E3
:1058F0003FFC00200D490860FFF783F910BD10B58B
:10590000FFF786F903480468FFF78BF9204610BDBE
:10591000EC000020DC000020C8000020B849002076
:10592000E4000020F40000206C4A0020E800002081
:10593000D8000020444A0020D4000020584A00200B
:1059400049444C4500000000A558000870B50025EA
:10595000FAF70EFC47480468FAF711FC204670BDC0
:1059600045480068704770B506460C4643480168D4
:1059700018313046FFF7F0F840480068001DFFF787
:1059800005F9601C30B93D480168091D3C48FFF726
:10599000D5F805E03748006805192846FFF77BFD74
:1059A00070BD70B50646F068C46804F11800FFF7D2
:1059B000EDF834480068A0B9201DFFF7E7F8324938
:1059C000E06A0968884202D92F49E06A0860E16A02
:1059D00001EB81012D4A02EB8100211DFFF7AEF89A
:1059E00004E004F118012A48FFF7A8F82349E06A07
:1059F0000968C96A884201D3012500E000252846CC
:105A000070BD2449096801601A49096841607047FE
:105A100070B504460D46FFF7FBF82868401C08B92E
:105A200000261FE01B4920680968884206D01149FA
:105A300060680968884201D8012613E00D49606852
:105A40000968081A296888420BD22868094A6168DF
:105A50001268511A401A28602046FFF7D2FF00262C
:105A600000E00126FFF7DDF8304670BD01200A494D
:105A700008607047DC000020D8000020C80000202B
:105A80006C4A0020EC000020E4000020B84900200F
:105A9000444A0020F8000020F40000202DE9F04FD7
:105AA0004FF0000C4FF0000301EB9C6EBEF902506A
:105AB0003EF9404BBEF902903EF9408BBEF90270B0
:105AC0003EF9406BBEF902B03EF940ABD044D94438
:105AD000A8EB4A0AA9EB4B0B4FEAA4044FEAA50531
